:020000040800F2
:10000000687B00209D0100082D750008456D0008E3
:1000100029750008250F0008A9B700080000000096
:10002000000000000000000000000000417F000808
:10003000F12B000800000000517B0008258000081B
:10004000B7010008B7010008B7010008B7010008B0
:10005000B7010008B7010008B7010008B7010008A0
:10006000B7010008B7010008B7010008B701000890
:10007000A5290008B7010008B5290008B701000844
:10008000B7010008B7010008B7010008B701000870
:10009000290F0008B7010008B7010008B7010008E0
:1000A000B7010008B7010008B7010008B701000850
:1000B000B701000831810008B7010008B701000846
:1000C000B7010008B7010008B7010008B701000830
:1000D000B7010008E5B20008B7010008F5B2000852
:1000E000B7010008B7010008B7010008B701000810
:1000F000B7010008B7010008B7010008B701000800
:10010000B7010008B7010008B7010008B7010008EF
:10011000B7010008B7010008B701000841810008D5
:10012000B7010008C5290008D5290008B701000853
:10013000B7010008B7010008B7010008B7010008BF
:10014000390F0008B7010008B7010008B70100081F
:10015000B7010008E5290008F52900088DB300085B
:10016000B7010008B7010008B7010008B70100088F
:10017000B7010008B7010008B7010008000000003F
:10018000B7010008B7010008DFF80CD000F0EEFB63
:10019000004800479DBD0008687B00200648804756
:1001A00006480047FEE7FEE7FEE7FEE7FEE7FEE75C
:1001B000FEE7FEE7FEE7FEE71D8100088901000873
:1001C0009FED1A1AF5EE000A40EE010ABDEEE00AB4
:1001D000F5EEC00A10EE100AF1EE10FA38BF401E1C
:1001E00000EE100A1349F7EE001AB8EEC00A30EE1E
:1001F000C00ADFED0F0A20EE200AFCEEC00A10EE66
:10020000900AC0F3080000EE900A01EB8000F8EEBF
:10021000600A90ED011A70EE600A90ED000A71EE2E
:10022000E01A21EE800A00EE810A704783F9223E2F
:100230000000004458EC0008DFED190AB5EEC00AD2
:1002400060EE200ABDEEE01A11EE100AF1EE10FA8F
:1002500038BF401E00EE100A1349F7EE001AB8EE40
:10026000C00A30EEC00ADFED0F0A60EE200ABCEED5
:10027000E00A10EE100AC0F3080000EE100A01EBCD
:100280008000B8EE400A90ED011A70EEC00A90EDC1
:10029000000A71EEE01A21EE800A00EE810A704732
:1002A00083F9223E0000004458EC00082DE9F05F7D
:1002B0000546002092469B468846064681464024D5
:1002C0001BE0284641464746224600F050FA534676
:1002D0005A46C01A914110D311461846224600F0E2
:1002E00037FA2D1A67EB01084F46224601200021FC
:1002F00000F02EFA17EB00094E41201EA4F1010474
:10030000DFDC484631462A464346BDE8F09F40EAD6
:1003100001039B0703D009E008C9121F08C0042A83
:10032000FAD203E011F8013B00F8013B521EF9D26A
:100330007047D2B201E000F8012B491EFBD2704792
:100340000022F6E710B513460A4604461946FFF7A1
:10035000F0FF204610BD2DE9FE4F804681EA0300E4
:10036000C00F0C46009021F0004123F00045B8EB8F
:100370000200A94105D24046214690461C460B4644
:10038000024623F00040104347D0270DC7F30A0070
:10039000C3F30A510290401A019040286BDAC3F36C
:1003A000130040F4801B0098924620B10023D2EB4A
:1003B000030A63EB0B0B01985946C0F1400250460B
:1003C00000F0C6F906460D4650465946019A00F01F
:1003D000DEF910EB08006141002487EA115284EA3B
:1003E000E7731A4340D0009A62B3019A012A4FEA98
:1003F000075215DC001B61EB02014FF0004202EADC
:100400000752CDE90042001C41F5801132462B46CF
:1004100000F015FA03B0BDE8F08F40462146F9E739
:10042000001B61EB0201001C41F5801300185B41C9
:100430002018A2F5001747EB030140EAD570B61962
:100440006D4111E06D084FEA360645EAC0754FEA86
:100450000752001B61EB0201001C41F580114908A5
:100460004FEA30000019514132462B4603B0BDE837
:10047000F04F00F0D5B90098012240000023D0EBE6
:10048000020263EBE073009821464FEAE074B8EB98
:10049000000061EB0401E9E783F000435BE781F0D2
:1004A000004158E72DE9FE4F81EA030404F00044BF
:1004B00021F0004100944FF0000B23F0004350EA7C
:1004C00001045ED052EA03045BD0C3F30A54C1F3C3
:1004D0000A552C44A4F2F3340194A0FB0254C1F356
:1004E000130141F48011C3F3130343F4801301FBA0
:1004F000024400FB034E840A970A44EA815447EA07
:100500008357A4FB076802958D0A05FB07854FEA10
:10051000932C04FB0C542705029D4FEA065847EA2A
:100520001637B5EB08056EEB070C870E920E47EAFF
:10053000811742EA8312A7FB0201B6EB0B0164EBC1
:1005400000042B0D43EA0C335E1844EB1C50DA46D2
:100550005146E7FB0201C5F313044FEA0B3343EAAC
:1005600014534FEA0432019C43EA0603A4F10C043D
:100570000294009CCDE900B400F061F903B0BDE83D
:10058000F08F00200146F9E72DE9F04D81EA0304E0
:1005900004F0004B21F0004514464FF0000A23F010
:1005A000004150EA050220D054EA01021DD0C5F3F3
:1005B0000A570246C5F31303C1F31300C1F30A56E9
:1005C00040F4801543F48013A7EB0608101BD646B1
:1005D00008F2FD3873EB050002D308F1010801E0D1
:1005E00092185B41B8F1000F03DA00200146BDE824
:1005F000F08D00204FF48011064684460EE0171B54
:1006000073EB050705D3121B63EB050306434CEAA6
:10061000010C49084FEA300092185B4150EA01078B
:10062000EDD152EA030012D082EA040083EA050108
:10063000084305D0101BAB4106D20122002306E07F
:1006400000224FF0004302E06FF0010253101AEB5A
:1006500006004CEB085110EB0A0041EB0B01BDE822
:10066000F04D00F0DDB80EB5C10F80EAE07008442F
:10067000CA07002140F233438DE80E000A460B46BC
:1006800000F0DDF803B000BD70B5C1F30A5201F00F
:1006900000450024C1F3130140F2FF3341F48011FF
:1006A0009A4201DA002070BD40F233439A42A2F22E
:1006B000334203DC524200F05AF800E090402C43F1
:1006C000F1D0404270BD00F0004230F000400AD04E
:1006D000C10D01F56071C0F3160042EA0151C20874
:1006E00040071143704700200146704701F0004366
:1006F00030B421F0004150EA010206D00A0DA2F503
:100700006072C1F31301002A02DC30BC0020704784
:10071000440F44EAC104C100E01830BC00EBC250F1
:1007200000F047B830B50B460146002020220124D6
:1007300009E021FA02F59D4205D303FA02F5491BAF
:1007400004FA02F52844151EA2F10102F1DC30BDC5
:10075000202A04DB203A00FA02F100207047914081
:10076000C2F1200320FA03F3194390407047202A76
:1007700004DB203A21FA02F00021704721FA02F34B
:10078000D040C2F120029140084319467047202A08
:1007900006DBCB17203A41FA02F043EAE07306E0A9
:1007A00041FA02F3D040C2F12002914008431946B9
:1007B00070470029A8BF7047401C490008BF20F0BF
:1007C0000100704710B4B0FA80FC00FA0CF050EA57
:1007D000010404BF10BC704749B1CCF1200421FAD8
:1007E00004F411FA0CF118BF012121430843A3EBD3
:1007F0000C01CB1D4FEA00614FEA102042BF0020E0
:1008000010BC704700EBC35010440029A4BF10BCBB
:100810007047401C490008BF20F0010010BC704721
:1008200010B5141E73F1000408DA401C41F10001F8
:1008300092185B411A4301D120F0010010BD2DE94F
:10084000F04D92469B4611B1B1FA81F202E0B0FA46
:1008500080F220329046FFF77BFF04460F4640EAC5
:100860000A0041EA0B0153465A46084313D0114689
:1008700053EA010019D0C8F140025046FFF777FF54
:1008800005460E46504659464246FFF761FF08436B
:1008900005D0012004E020463946BDE8F08D002057
:1008A000054346EAE0762C4337430A986305E40A99
:1008B000A0EB08000022FD0A44EA47540A3002D5A2
:1008C00000200146E9E7010510196941DDE9084505
:1008D00000196941BDE8F04DA2E7C1F30A52C1F326
:1008E000130140F2FF3341F480119A4202DA0020F2
:1008F0000146704740F233439A42A2F2334202DC8F
:100900005242FFF734BFFFF723BF000030B5041E8B
:1009100071F1000404DB4FF00044404264EB01013C
:10092000141E73F1000405DB1C464FF000435242D5
:1009300063EB04038B4208BF824230BD30B5041E16
:1009400071F1000404DB4FF00044404264EB01010C
:10095000141E73F1000405DB1C464FF000435242A5
:1009600063EB0403994208BF904230BD064C074D2B
:1009700006E0E06840F0010394E80700984710346F
:10098000AC42F6D3FFF704FCD0FE0008F0FE0008EE
:1009900010B588B040F27050C2F20000807800F0CC
:1009A000010040F69701C2F20001087040F27E702B
:1009B000C2F20000B0F9121000EE101AB8EEC00A30
:1009C0009FEDDB1A80EE010A40F2BC2CC2F2000C53
:1009D0008CED000AB0F9141000EE101AB8EEC00A3F
:1009E00080EE010A40F20822C2F2000282ED000A03
:1009F000B0F9101000EE101AB8EEC00A80EE010A2D
:100A000040F20C21C2F2000181ED000AB0F916009B
:100A100000EE100AB8EEC00A80EE010A40F2C023D0
:100A2000C2F2000383ED000A40F2FE60C2F2000051
:100A3000B0F870E040F21020C2F20000A0F898E098
:100A400090F898E040F2B424C2F2000484F800E088
:100A50009CED000A93ED001A20EE010A80ED240AB5
:100A600092ED000A91ED001A20EE010A80ED250AB0
:100A7000D0F8880040B9FFE741F63801C2F2000122
:100A8000086801300860FFE741F63800C2F2000054
:100A90000068B0F57A7F0ED3FFE741F63801C2F265
:100AA00000010020086040F21021C2F20001012084
:100AB000C1F88800FFE740F21020C2F20000D0F831
:100AC0008800002800F08781FFE740F21020C2F282
:100AD0000000D0F88C0048F63961C3F6E30150FB02
:100AE00001F2511001EBD27101EBC101401A032850
:100AF00040F0F580FFE740F23030C2F20000D0F85D
:100B0000AC01012840F0C380FFE740F27050C2F210
:100B100000008078C007A0B9FFE740F20C00C2F2E5
:100B20000000016840F21020C2F200000790C0F8F7
:100B30009C10D0F89C00804707990020C1F88800DD
:100B4000FFE740F2C020C2F2000090ED000AB2EED2
:100B50000C1AB4EE410AF1EE10FA64DBFFE740F242
:100B60000420C2F20000006865285CD3FFE740F271
:100B70001020C2F2000090F89A0028BBFFE740F274
:100B80001020C2F20000B0F8980001281BD1FFE746
:100B900040F20421C2F2000100200690086040F2F9
:100BA0000C00C2F20000816840F21020C2F2000086
:100BB0000590C0F89C10D0F89C00804705990698D5
:100BC000C1F88800FFE72DE040F21020C2F20000DB
:100BD00090F89A00012824D1FFE740F21020C2F2D9
:100BE0000000B0F89800D8B9FFE740F20421C2F243
:100BF000000100200490086040F20C00C2F20000E6
:100C0000C16840F21020C2F200000390C0F89C10AE
:100C1000D0F89C00804703990498C1F88800FFE74A
:100C2000FFE7FFE732E040F2C020C2F2000090EDA3
:100C3000000AB2EE0C1AB4EE410AF1EE10FA24DA10
:100C4000FFE740F21020C2F20000B0F8980001283F
:100C50001AD1FFE740F20C00C2F20000816840F2B6
:100C60001020C2F200000290C0F89C10D0F89C0046
:100C70008047029940F27C62C2F2000203201070A9
:100C80000020C1F88800FFE7FFE7FFE726E040F219
:100C90003030C2F20000D0F8AC010130E8B9FFE713
:100CA00040F27050C2F200008078C007A0B1FFE7A8
:100CB00040F20C00C2F20000416840F21020C2F283
:100CC00000000190C0F89C10D0F89C00804701996A
:100CD0000020C1F88800FFE7FFE7FFE771E040F27E
:100CE0001020C2F20000D0F88C0048F63961C3F63B
:100CF000E30150FB01F2511001EBD27101EBC10194
:100D0000401A062816D1FFE740F27C61C2F20001CA
:100D10000420087040F21020C2F200000090008B06
:100D20000AF072FC00990020C1F8880048E000BF7A
:100D30000000C84240F21020C2F20000D0F88C003F
:100D400048F63961C3F6E30150FB01F2511001EBA3
:100D5000D27101EBC101401A082830D1FFE740F2FF
:100D60007C61C2F200010520087040F25860C2F2B6
:100D70000000026840F23401C2F2000151F8221072
:100D800040F21022C2F20002C2F89C100168013148
:100D900001600021C2F888100068052807DBFFE722
:100DA00040F25861C2F2000100200860FFE740F203
:100DB0001020C2F20000D0F89C008047FFE7FFE758
:100DC000FFE740F21021C2F20001D1F88C0001309F
:100DD000C1F88C00FFE708B010BD00000000000063
:100DE00080B586B005908DED040A04980599486099
:100DF000059890ED010A90ED021A30EE410A80ED5F
:100E0000030A059890ED030AB5EE400AF1EE10FAD8
:100E100030DBFFE70598C068FFF755FC41EC100B8D
:100E20009FED351B53EC112B51EC100B03910290ED
:100E3000FFF738FB41EC100B0DF04AF802980399CC
:100E400053EC102BFFF7A0FB41EC100B51EC100BF7
:100E5000FFF74CFC05990861059890ED002A90ED8C
:100E6000020A90ED041A81EE021A30EE010A80EDBA
:100E7000020A3AE00598C068FFF725FC41EC100B28
:100E80009FED1B1B50EC111BC20F51EC100B62F3BA
:100E9000DF7141EC100B9FED181B53EC112B51EC43
:100EA000100B01910090FFF7FDFA41EC100B0DF0D3
:100EB0000FF80098019953EC102BFFF765FB41ECFC
:100EC000100B51EC100BFFF711FC05990861059808
:100ED00090ED002A90ED020A90ED041A81EE021ABC
:100EE00030EE410A80ED020AFFE706B080BD00BF88
:100EF0000000000000000000666666666666E63F69
:100F000082B001908DED000A009801990860019966
:100F100000204860019988600199C86001990861C2
:100F200002B07047FFE7FEE780B540F62860C2F2E6
:100F3000000002F0F1FB80BD80B540F65060C2F2C7
:100F4000000002F0E9FB80BD80B541F29410C2F2CE
:100F500000000268D16841F01001D16040F2102118
:100F6000C2F200012331642205F0E8FC80BD0000DC
:100F700080B586B0059000200490FFE740F6BC00E5
:100F8000C2F2000000F5037140F25C62C2F200029E
:100F9000019206F00FFE01980188090409BA029136
:100FA00081788DF80F1002999DF80F20C31C40F630
:100FB0002860C2F2000000F005F801200AF03CFFB2
:100FC000DCE7000080B586B0059004918DF80F2015
:100FD0000293049840F69051C2F20001086000208C
:100FE0008860C8609DF80F0008610598029A01ABFF
:100FF00002F00CF906B080BD86B0DDF830C0DDF837
:101000002CC0DDF828C0DDF824C0DDF820C0DDF8F4
:101010001CC0DDF818C005900491039202930020D3
:101020000190FFE7019900200229009008DCFFE70A
:1010300004980199405C002818BF01200090FFE748
:101040000098C00758B1FFE70498019A805C0599A1
:10105000891A8870FFE7019801300190E2E705994D
:10106000D1F80320D1F80730D1F80B0042F0380254
:10107000C1F80730C1F80320C1F80B00DDF80CC03F
:101080000599D1F80320D1F80730D1F80B006CF3A3
:101090000202C1F80730C1F80320C1F80B00DDF8E7
:1010A00008C00599D1F80320D1F80730D1F80B001A
:1010B0000CF00F0C22F4707242EA8C12C1F8073067
:1010C000C1F80320C1F80B00DDF818C00599D1F86C
:1010D0000320D1F80730D1F80B000CF00F0C22F4EC
:1010E000705242EA8C22C1F80730C1F80320C1F8DF
:1010F0000B00DDF824C00599D1F80330D1F80720A2
:10110000D1F80B006CF30902C1F80330C1F80720D5
:10111000C1F80B00DDF828C00599D1F80330D1F8EB
:101120000720D1F80B006FF3DF2C6FF3942242EA13
:101130008C22C1F80330C1F80720C1F80B00DDF89C
:101140002CC00599D1F80330D1F80720D1F80B0055
:101150006FF35F5242EA4C52C1F80330C1F80720E6
:10116000C1F80B00DDF81CC00599D1F80320D1F8B7
:101170000730D1F80B006FF35F2C6FF3963242EA21
:101180008C32C1F80730C1F80320C1F80B00DDF83C
:1011900020C00599D1F80320D1F80730D1F80B0011
:1011A0006FF3DF5242EACC52C1F80730C1F8032096
:1011B000C1F80B0000200190FFE7019808998842D0
:1011C0000ED2FFE70C9800780599019A1144C87374
:1011D0000C9801300C90FFE7019801300190ECE78A
:1011E00006B070472DE9F047AEB0DDF8F490DDF8B9
:1011F000F0803B9F3A9E399D389CDDF8DCE0DDF8BD
:10120000D8C0CDF88490CDF880801F971E961D958C
:101210001C94CDF86CE0CDF868C019931892179122
:10122000169022A8019016A92D220292FFF76FF8BE
:101230000199029A4FF6FF70ADF81E0009A8FFF75A
:1012400066F805A80890A5208DF814003320ADF8A5
:10125000150040F6DC40C2F2000000788DF817005F
:1012600008980421FF2201F085FF8DF8180040F254
:101270000130ADF819004FF48870ADF80C0041F260
:101280009070C2F200000078012808D1FFE7012029
:10129000ADF80E0040F20110ADF8100076E041F21A
:1012A0009070C2F200000078652808D1FFE7652041
:1012B000ADF80E0040F26510ADF8100065E041F2A7
:1012C0009070C2F200000078032808D1FFE70320E5
:1012D000ADF80E0040F20310ADF8100054E041F2FA
:1012E0009070C2F200000078672808D1FFE76720FD
:1012F000ADF80E0040F26710ADF8100043E041F287
:101300009070C2F200000078042808D1FFE70420A2
:10131000ADF80E004FF48270ADF8100032E041F2EB
:101320009070C2F200000078682808D1FFE76820BA
:10133000ADF80E004FF4B470ADF8100021E041F2AA
:101340009070C2F200000078052808D1FFE7052060
:10135000ADF80E0040F20510ADF8100010E041F2BB
:101360009070C2F200000078692808D1FFE7692078
:10137000ADF80E0040F26910ADF81000FFE7FFE78E
:10138000FFE7FFE7FFE7FFE7FFE7FFE705A80090BC
:1013900008900898BDF81E20072101F0B7FEADF8AF
:1013A0001E0003A808900898BDF81E20062101F031
:1013B000ADFEADF81E0009A808900898BDF81E20E3
:1013C0002D2101F0A3FE01460098ADF81E100890F3
:1013D00000201590FFE7159806280CD8FFE708981D
:1013E000007809F06FFF089801300890FFE7159822
:1013F00001301590EFE703A8089000201590FFE753
:10140000159805280CD8FFE70898007809F05AFFCE
:10141000089801300890FFE7159801301590EFE724
:1014200009A8089000201590FFE715982C280CD8E3
:10143000FFE70898007809F045FF08980130089008
:10144000FFE7159801301590EFE70DF11E000890A9
:1014500000201590FFE7159801280CD8FFE70898A1
:10146000007809F02FFF089801300890FFE71598E1
:1014700001301590EFE740F6DC41C2F20001087838
:101480000130087000202EB0BDE8F08780B584B030
:10149000ADF80E00ADF80C10ADF80A20ADF808302C
:1014A00040F6A851C2F200014FF40070086000201D
:1014B0008860C860082008619DF80F0040F68852D7
:1014C000C2F2000210709DF80E0050709DF80D00E1
:1014D00090709DF80C00D0709DF80B0010719DF875
:1014E0000A0050719DF8090090719DF80800D071B4
:1014F00040F65060C2F2000001AB01F087FE04B07C
:1015000080BD000080B590B000200F9041F22C20EB
:10151000C2F2000090ED000A9FEDE11AB4EE410A1C
:10152000F1EE10FA11D1FFE740F23030C2F20000C4
:10153000007D032809D1FFE740F27861C2F2000183
:101540000020CCF2C000086056E041F22C20C2F22C
:10155000000090ED000A9FEDD31AB4EE410AF1EEBF
:1015600010FA11D1FFE740F23030C2F20000007DE6
:10157000032809D1FFE740F27861C2F200010020A0
:10158000CCF2D010086036E041F22C20C2F200000C
:1015900090ED000A9FEDC41AB4EE410AF1EE10FA84
:1015A00011DBFFE740F23030C2F20000007D03287B
:1015B00009D1FFE740F27861C2F200010020CCF2CD
:1015C000D010086016E040F23030C2F20000007D1A
:1015D000032807D1FFE740F27861C2F20001002042
:1015E000086006E040F27861C2F200010020086065
:1015F000FFE7FFE7FFE7FFE740F23030C2F200000D
:101600000D90006990ED031A9FEDA80A30EE410A93
:1016100040F27860C2F2000090ED001A30EE010A4C
:101620008DED0F0A40F64D00C2F200000290B0F9B5
:10163000010000EE100AB8EEC00A9FED9D1A8DED74
:10164000031A80EE010A40F27410C2F20000069004
:10165000FFF7C6FB02989DED031AB0F90300404264
:1016600000EE100AB8EEC00A80EE010A40F28810BF
:10167000C2F200000890FFF7B3FB029A9DED031A37
:1016800006980899B2F9013000EE103AB8EEC00A97
:1016900080EE010A80ED020AB2F90320524200EE08
:1016A000102AB8EEC00A80EE010A81ED020A90ED20
:1016B000020A8DED040A9DED0F0A9FED7E1A8DED55
:1016C000091A80EE010A9FED7C1A8DED0A1A20EEB0
:1016D000010AFEF775FD08989DED092A9DED0A1A8D
:1016E000B0EE403A9DED040A20EE030A8DED050AA6
:1016F00090ED020A8DED070A9DED0F0A80EE020AB9
:1017000020EE010AFEF798FD9DED053A06989DED45
:10171000092A9DED0A1A0D99B0EE404A9DED070A7F
:1017200020EE040A30EE430A81ED060A90ED020A2B
:101730008DED0B0A9DED0F0A80EE020A20EE010AE4
:10174000FEF77AFD08989DED092A9DED0A1AB0EE84
:10175000403A9DED0B0A20EE030A8DED0E0A90ED46
:10176000020A8DED0C0A9DED0F0A80EE020A20EEB2
:10177000010AFEF725FD9DED0C1A0D98B0EE402AEA
:101780009DED0E0A21EE021A30EE010A80ED070AE5
:10179000007D032840F0FA80FFE741F22C20C2F2DE
:1017A000000090ED000A9FED3E1AB4EE410AF1EE02
:1017B00010FA2CD1FFE740F29401C2F2000149F681
:1017C0009A10C3F69970086040F64D00C2F200000E
:1017D000B0F9010040B9FFE740F64D00C2F2000049
:1017E000B0F9030040B1FFE740F29801C2F20001F6
:1017F0004FF07C50086009E040F29801C2F200010D
:101800004BF65200C3F61E700860FFE7B3E041F2EA
:101810002C20C2F2000090ED000A9FEDC01AB4EE39
:10182000410AF1EE10FA2CD1FFE740F29401C2F226
:1018300000014FF08140086040F64D00C2F2000008
:10184000B0F9010040B9FFE740F64D00C2F20000D8
:10185000B0F9030050B1FFE740F29801C2F2000175
:1018600043F67150C3F64A70086009E040F29801EF
:10187000C2F2000143F67150C3F64A700860FFE7F8
:1018800078E041F22C20C2F2000090ED000A9FEDBA
:10189000A41AB4EE410AF1EE10FA3CDB0EE000BFF0
:1018A000000070420000A0420000C842000010C3C7
:1018B00000FEFF4600003443DB0F494040F2940134
:1018C000C2F200010020C4F24000086040F64D0062
:1018D000C2F20000B0F9010040B9FFE740F64D0048
:1018E000C2F20000B0F9030050B1FFE740F29801E6
:1018F000C2F2000146F26660C3F66670086009E055
:1019000040F29801C2F2000146F26660C3F66670CA
:101910000860FFE72DE040F29401C2F2000149F6B1
:101920009A10C3F69970086040F64D00C2F20000AC
:10193000B0F9010040B9FFE740F64D00C2F20000E7
:10194000B0F9030050B1FFE740F29801C2F2000184
:101950004CF6CD40C3F6CC60086009E040F2980137
:10196000C2F200014AF2D730C3F6F0600860FFE728
:10197000FFE7FFE7FFE740F29800C2F200000068CF
:1019800040F23031C2F2000108627DE040F23030B6
:10199000C2F20000007D022808D0FFE740F230309C
:1019A000C2F20000007D01286DD1FFE741F22C203A
:1019B000C2F2000090ED000A9FED571AB4EE410A02
:1019C000F1EE10FA09D1FFE740F29401C2F20001F2
:1019D0000020C4F24000086038E041F22C20C2F23E
:1019E000000090ED000A9FED4D1AB4EE410AF1EEB1
:1019F00010FA09D1FFE740F29401C2F20001002081
:101A0000C4F24000086020E041F22C20C2F2000045
:101A100090ED000A9FED421AB4EE410AF1EE10FA81
:101A200009D1FFE740F29401C2F200010020C4F2A4
:101A30004000086008E040F29401C2F2000100207A
:101A4000C4F240000860FFE7FFE7FFE740F23030F4
:101A5000C2F200000190006990ED030A9FED311A77
:101A600030EE010A0BF030FB0198B2EE041A20EEC2
:101A7000010A00F5A270DFED2C0A05F08FFD019838
:101A800080ED080AFFE7FFE740F64D00C2F20000D4
:101A900040798007002813D5FFE740F64D00C2F2D9
:101AA00000004079400600280AD5FFE740F2940183
:101AB000C2F2000143F23330C3F6B3600860FFE7BF
:101AC00040F29401C2F2000191ED001A40F2303070
:101AD000C2F2000090ED060A20EE010A80ED060A2F
:101AE00091ED001A90ED070A20EE010A80ED070A39
:101AF000007D02280DD0FFE740F23030C2F2000036
:101B000090ED080AB0EE081A20EE010A80ED080AEE
:101B1000FFE710B080BD00BF000070420000A0428F
:101B20000000C842000010430000000080B586B0ED
:101B300040F23030C2F20000007DB8B9FFE700206B
:101B40000590FFE7059803280FDCFFE7059940F2B1
:101B50003030C2F2000000EB81010020C1F88C019E
:101B6000FFE7059801300590ECE7BCE040F230302B
:101B7000C2F20000007D01283CD1FFE740F2303185
:101B8000C2F200010020C1F8A801C1F8A401C1F807
:101B9000A001C1F89C010490FFE70498032828DC09
:101BA000FFE7049B03EBC30040F23032C2F20002B5
:101BB000029202EBC000243002EB830152F8232092
:101BC000B2F9022000EE102AB8EEC00A9FED471AC3
:101BD00020EE010AD1ED670A05F0E0FC02980499B5
:101BE00000EB810080ED630AFFE704980130049068
:101BF000D3E777E040F23030C2F20000007D0228E7
:101C000008D0FFE740F23030C2F20000007D032828
:101C100067D1FFE740F23030C2F20000019090ED52
:101C2000060A90ED072A90ED081AB1EE400A30EE50
:101C3000420A30EE010A80ED670A90ED060A90ED47
:101C4000072A90ED081A30EE420A30EE010A80EDC4
:101C5000680A90ED060A90ED072A90ED081A30EE1A
:101C6000020A30EE010A80ED690A90ED062A90ED35
:101C7000071A90ED080A31EE421A30EE010A80EDA3
:101C80006A0A00200390FFE70398032828DCFFE797
:101C9000039B03EBC30040F23032C2F20002009219
:101CA00002EBC000243002EB830152F82320B2F98A
:101CB000022000EE102AB8EEC00A9FED0C1A20EEAA
:101CC000010AD1ED670A05F069FC0098039900EB61
:101CD000810080ED630AFFE7039801300390D3E7AA
:101CE000FFE7FFE7FFE706B080BD00BF0A01DA3972
:101CF00080B586B000200590FFE70598032834DC06
:101D0000FFE7059840F23031C2F20001049101EB87
:101D1000800200200390C2F88C01059A01EB820139
:101D2000C1F89C019DF8140001F0DAF9039902460C
:101D30000498059B40F82320059A02EBC20300EBB0
:101D4000C300243002EB420340F25C02C2F2000204
:101D500002EB83029FED250ADFED250A05F0DAFD8F
:101D6000FFE7059801300590C7E701F0C9F9014682
:101D700040F23030C2F200000290016100F5A27022
:101D800040F25002C2F20002002100919FED140ABD
:101D9000F7EE000A05F0BEFD00980299087540F2C2
:101DA0007410C2F200009FED0F0A8DED010AFFF7DB
:101DB000A7F89DED010A40F28810C2F20000FFF77B
:101DC0009FF840F26010C2F200009FED070AFFF793
:101DD00097F802990120C1F8AC0106B080BD00BFA0
:101DE00000007A440000C8420000FA4300B07E467A
:101DF00000409C4580B500F003F800F081F880BDFC
:101E000041F21C20C2F20000416840F6C052C2F20A
:101E100000021160018900EE101AB8EE400A40F687
:101E2000C451C2F2000181ED000A41F29071C2F288
:101E300000010A8B00EE102AB8EE400A41F22C2273
:101E4000C2F2000282ED000A497800EE101AB8EEE4
:101E5000400A40F29001C2F2000181ED000A0188BF
:101E600000EE101AB8EE400A9FED242A80EE020A16
:101E700040F6C851C2F2000181ED000A92ED000A5D
:101E800091ED001A80EE010A40F64851C2F20001BD
:101E900081ED000A91ED000A408801EE100AB8EECB
:101EA000411A81EE021A30EE410A41F28070C2F20C
:101EB000000080ED000A90ED000AB5EE400AF1EE58
:101EC00010FA07DAFFE741F28071C2F20001002048
:101ED0000860FFE741F28070C2F2000090ED000A56
:101EE0009FED061A20EE010ABDEEC00A10EE100AA0
:101EF00040F21021C2F200010883704700007A44CA
:101F000080B592B040F6C450C2F2000090ED000AD5
:101F100040F28C00C2F2000090ED001AB4EE410ACB
:101F2000F1EE10FA17DAFFE740F6C450C2F20000F3
:101F300090ED000A40F28C00C2F2000090ED001A11
:101F400080EE010A20EE010A41F2CC20C2F200002C
:101F500080ED000A50E040F29000C2F2000090EDE7
:101F6000000AB7EE001AB4EE410AF1EE10FA09D1F8
:101F7000FFE741F2CC21C2F200010020C4F2702040
:101F8000086038E040F29000C2F2000090ED000AD4
:101F9000B0EE001AB4EE410AF1EE10FA09D1FFE7F3
:101FA00041F2CC21C2F200010020C4F2A02008605E
:101FB00020E040F29000C2F2000090ED000AB0EE86
:101FC000081AB4EE410AF1EE10FA09D1FFE741F226
:101FD000CC21C2F200010020C4F2C820086008E051
:101FE00041F2CC21C2F200010020C4F2702008604E
:101FF000FFE7FFE7FFE7FFE741F65001C2F200010C
:102000000020086045F67401C2F2000108601190DA
:10201000FFE71198032800F28D80FFE7119940F245
:102020003030C2F20000089000F5C670079050F8FA
:102030002100FEF748FB41EC100B51EC100B9FED1B
:10204000E40B52EC103BD20F099262F3DF7141ECCA
:10205000100B8DED040B45F67400C2F200000690E3
:102060000068FEF730FB9DED041B41EC100B53ECB8
:10207000112B51EC100BFEF76EF941EC100B51ECEB
:10208000100BFEF733FB069B079A01460898196070
:10209000119902EB810292ED000A50F82100B0F98B
:1020A000020001EE100AB8EEC11A20EE010A10EE8D
:1020B000100AFEF708FB099A41EC100B51EC100BCB
:1020C00062F3DF7141EC100B8DED0A0B40F29C00C6
:1020D000C2F200000068FEF7F6FA9DED0A1B41EC23
:1020E000100B51EC110B53EC102BFEF7DBF941EC0C
:1020F000100B8DED0C0B41F65000C2F200000F905A
:102100000068FEF7E0FA9DED0C1B41EC100B53EC60
:10211000112B51EC100BFEF71EF941EC100B51EC9A
:10212000100BFEF7E3FA0F990860FFE711980130F2
:1021300011906EE740F64D00C2F2000040790006B3
:10214000002826D5FFE740F2C020C2F2000090ED43
:10215000000AB2EE0C1AB4EE410AF1EE10FA18DDE4
:10216000FFE740F20420C2F200000068652810D3A7
:10217000FFE740F21021C2F20001012081F89A002D
:1021800041F2CC21C2F200010020C4F216300860F6
:1021900007E040F21021C2F20001002081F89A000D
:1021A000FFE741F65000C2F2000090ED000A41F254
:1021B000CC20C2F2000090ED001AB4EE410AF1EE1C
:1021C00010FA40F32281FFE741F2CC20C2F2000076
:1021D00090ED000A41F65000C2F2000090ED001AA6
:1021E00080EE010A40F24800C2F2000080ED000AD1
:1021F00040F23030C2F20000007D032874D1FFE7C6
:1022000040F64D00C2F20000B0F9010000286BD189
:10221000FFE740F64D00C2F20000B0F903000028CD
:1022200062D1FFE741F22C20C2F2000090ED000ADB
:102230009FED7D1AB4EE410AF1EE10FA29DAFFE7BC
:1022400041F22C20C2F2000090ED000A9FED771AB7
:10225000B4EE410AF1EE10FA1BDDFFE740F2480050
:10226000C2F2000003900068FEF72DFA41EC100B5B
:102270009FED691B53EC112B51EC100BFEF712F97B
:1022800041EC100B51EC100BFEF730FA039908608B
:1022900029E041F22C20C2F2000090ED000A9FEDEF
:1022A000621AB4EE410AF1EE10FA1BDDFFE740F2CC
:1022B0004800C2F2000002900068FEF704FA41EC08
:1022C000100B9FED571B53EC112B51EC100BFEF72D
:1022D000E9F841EC100B51EC100BFEF707FA0299EC
:1022E0000860FFE7FFE76AE040F23030C2F200002A
:1022F000007D032862D1FFE741F22C20C2F20000EA
:1023000090ED000A9FED481AB4EE410AF1EE10FA82
:1023100029DAFFE741F22C20C2F2000090ED000A1A
:102320009FED421AB4EE410AF1EE10FA1BDDFFE711
:1023300040F24800C2F2000001900068FEF7C3F9C5
:1023400041EC100B9FED341B53EC112B51EC100B97
:10235000FEF7A8F841EC100B51EC100BFEF7C6F994
:102360000199086029E041F22C20C2F2000090EDB2
:10237000000A9FED2D1AB4EE410AF1EE10FA1BDDB2
:10238000FFE740F24800C2F2000000900068FEF74C
:102390009AF941EC100B9FED1E1B53EC112B51ECE5
:1023A000100BFEF77FF841EC100B51EC100BFEF711
:1023B0009DF900990860FFE7FFE7FFE7FFE70020CE
:1023C0001090FFE7109803281ED805E000BF00BF5B
:1023D000000000000000000040F24800C2F20000CF
:1023E00090ED001A109940F23030C2F2000000EB7C
:1023F000810090ED630A20EE010A80ED630AFFE799
:10240000109801301090DDE7FFE712B080BD00BFEB
:102410009A9999999999F93F333333333333F33F89
:10242000666666666666F63F0000B4420000684273
:1024300081B040F64D00C2F20000407901380146FB
:102440000091112827D80099DFE801F009252525FA
:10245000251E25252517252525252525251040F26E
:102460003031C2F200010020087515E040F2303131
:10247000C2F20001032008750EE040F23031C2F2D2
:1024800000010220087507E040F23031C2F200017D
:102490000120087500E0FFE701B0704780B582B009
:1024A0000190FFF725FCFFE7FFF7C2FFFFF72AF8CF
:1024B000FFF73CFBFEF76CFAFFF79CFC40F2303074
:1024C000C2F2000090ED633A90ED642A90ED651A37
:1024D00090ED660ABDEEC33A13EE100ABDEEC22AB5
:1024E00012EE101ABDEEC11A11EE102ABDEEC00A8E
:1024F00010EE103AFEF7CAFF012009F09DFCD3E769
:1025000081B08DF8030000208DF802009DF80300D3
:1025100001280FDBFFE79DF80300072805DBFFE735
:102520009DF803000F2805DBFFE79DF80300112845
:1025300004DBFFE701208DF80200FFE79DF80200B1
:1025400001B0704784B00390029100208DF807001D
:102550000398007802990978884247D1FFE70398E9
:10256000407802994978884240D1FFE70298007983
:10257000ADF80400BDF804100298407940EA01204B
:10258000ADF8040000208DF803000398407801287E
:1025900005D0FFE70398407802280BD1FFE7BDF88C
:1025A0000400013800EB5071012000EBD1008DF8E0
:1025B0000300FFE703984078032805D0FFE703985E
:1025C0004078042806D1FFE7BDF8040040008DF8EC
:1025D0000300FFE7039880789DF80310884204D138
:1025E000FFE701208DF80700FFE7FFE79DF80700F0
:1025F00000F0010004B0704780B582B001908DF802
:10260000031001989DF8031000F016FCB0FA80F05A
:1026100040098DF802009DF8020000F0010002B0B0
:1026200080BD000086B0DDF828C0DDF824C0DDF8EC
:1026300020C0DDF81CC0DDF818C00590049103929D
:10264000029300200190FFE70199002002290090E9
:1026500008DCFFE704980199405C002818BF0120BE
:102660000090FFE70098C00758B1FFE70498019A6F
:10267000805C0599891A8870FFE701980130019004
:10268000E2E70599D1F80320D1F80730D1F80B0023
:102690004FF0020C6CF3C502C1F80730C1F80320FB
:1026A000C1F80B00DDF80CC00599D1F80320D1F872
:1026B0000730D1F80B006CF30202C1F80730C1F803
:1026C0000320C1F80B00DDF808C00599D1F80320FC
:1026D000D1F80730D1F80B000CF00F0C22F4707217
:1026E00042EA8C12C1F80730C1F80320C1F80B0090
:1026F000DDF818C00599D1F80320D1F80730D1F8DA
:102700000B000CF00F0C22F4705242EA8C22C1F83C
:102710000730C1F80320C1F80B00DDF81CC0059993
:10272000D1F80330D1F80720D1F80B006CF309027F
:10273000C1F80330C1F80720C1F80B00DDF820C054
:102740000599D1F80330D1F80720D1F80B006FF3C9
:10275000DF2C6FF3942242EA8C22C1F80330C1F8D7
:102760000720C1F80B00DDF824C00599D1F803302B
:10277000D1F80720D1F80B006FF35F5242EA4C52B8
:10278000C1F80330C1F80720C1F80B00DDF828C0FC
:102790000599D1F80320D1F80730D1F80B006CF37C
:1027A0000900C1F80730C1F80320C1F80B0006B0DA
:1027B0007047000080B586B00590ADF81210039206
:1027C0000020ADF80A00BDF8120001283FDBFFE74A
:1027D000BDF81200013800EB5071012000EBD10070
:1027E000ADF80A0000200190FFE70198BDF80A103B
:1027F00088422BDAFFE700200090FFE700980728C7
:102800001FDCFFE70199009800EBC100BDF8121032
:10281000884211DAFFE70399019A885C059BDDF88D
:1028200000C00CEBC20E13F80E3003F0010303FAE4
:102830000CF318448854FFE7FFE70098013000903C
:10284000DCE7FFE7019801300190CEE7FFE7BDF834
:102850000A0006B080BD000085B00490ADF80E10EF
:1028600002920020ADF80600BDF80E00012826DB1C
:10287000FFE700200090FFE70098BDF80E108842A7
:102880001CDAFFE70498009900EB410040780299B8
:10289000BDF80620531CADF8063088540498009902
:1028A00010F811000299BDF80620531CADF806304F
:1028B0008854FFE7009801300090DDE7FFE7BDF89E
:1028C000060005B07047000080B590B00D910C90E7
:1028D000BDF83400ADF83C000C980E900B920A93B2
:1028E0000020ADF826009DF83900012817DBFFE72E
:1028F0009DF83900042812DCFFE70A9ABDF83C0075
:10290000ADF820000E980790079808996B461A605A
:1029100000231A4605F02EFBADF82600FFE79DF8D0
:102920003900052805D0FFE79DF839000F2815D19B
:10293000FFE70B980690069A0A9BBDF83C00ADF89D
:1029400014000E98049004980599EC46CCF80030D9
:10295000002305F00FFBADF82600FFE79DF83900D6
:10296000062805D0FFE79DF83900102815D1FFE7AC
:102970000B980390039B0A9ABDF83C00ADF8080041
:102980000E98019001980299EC46CCF800200022A4
:1029900005F0F0FAADF82600FFE7BDF8260010B00C
:1029A00080BD000080B540F63870C2F2000001F032
:1029B0007BFC80BD80B540F69870C2F2000001F04B
:1029C00073FC80BD80B540F6F870C2F2000001F0E3
:1029D0006BFC80BD80B540F67860C2F2000001F06B
:1029E00063FC80BD80B541F25800C2F2000001F0E6
:1029F0005BFC80BD80B540F6D860C2F2000001F0FB
:102A000053FC80BD82B001900198007810384AF6DE
:102A1000AB21CAF6AA21A0FB011000090090009981
:102A20004FF27870C0F60000405C0199C8650098CC
:102A3000042807D3FFE701990868042262F309001C
:102A4000886506E00199086840F2FF329043886586
:102A5000FFE70198806D02B07047000086B00590D6
:102A600000208DF813000598806A0390059880690E
:102A700010BBFFE70398029003281BD80299DFE8F8
:102A800001F0020D0218059890F82F00C00720B140
:102A9000FFE701208DF81300FFE70CE00598C06AFE
:102AA000B0F1C07F04D1FFE701208DF81300FFE7EC
:102AB00001E000E0FFE745E005988069B0F5005FC0
:102AC00025D1FFE70398019003281ED80199DFE87C
:102AD00001F00206021101208DF8130016E005989E
:102AE00090F82F00C00720B1FFE701208DF81300F8
:102AF000FFE70BE00598C06AB0F1C07F04D1FFE7A3
:102B000001208DF81300FFE700E0FFE719E00398CC
:102B10000090032804D3FFE70098032804D00EE0B8
:102B200001208DF813000BE0059890F82F00C007E6
:102B300020B1FFE701208DF81300FFE700E0FFE779
:102B4000FFE7FFE79DF8130006B0704784B00390DD
:102B500002910192009303980168086820F4802094
:102B600008600098039909684860039880684028C5
:102B700009D1FFE7019803990968886002980399D1
:102B80000968C86008E0029803990968886001989C
:102B900003990968C860FFE704B0704780B586B044
:102BA0000590FFE740F6C050C2F200000068FDF754
:102BB0008AFD41EC100B8DED020B40F6C450C2F2C1
:102BC00000000068FDF77FFD9DED020B41EC110B4D
:102BD000684680ED001B53EC102B4FF6BD10C0F67D
:102BE00000000BF04BF9012009F026F9DAE70000AC
:102BF0007047000080B584B0039002918DF80720E3
:102C000000208DF80600039804F022F908B1FFE7D0
:102C100024E0FFE79DF806009DF8071088421DDAC2
:102C2000FFE70399D1F8040201306FF35F20C1F888
:102C3000040202989DF80610405C0399D1F8042222
:102C400088540399D1F808020130C1F80802FFE75F
:102C50009DF8060001308DF80600DBE704B080BD6A
:102C600081B0EFF3108072B60090FFE7FEE700003E
:102C700080B586B005900491ADF80E204FF0FF307E
:102C8000029000200190FFE70198BDF80E108842E5
:102C900011DAFFE705980499019A01EBC201FFF7E9
:102CA00051FC18B1FFE70198029004E0FFE701989A
:102CB00001300190E8E7029806B080BD87B0DDF8EA
:102CC00030C0DDF82CC0DDF828C0DDF824C0DDF808
:102CD00020C0DDF81CC006900591049203938DED91
:102CE000020A00200190FFE70199002002290090CC
:102CF00008DCFFE705980199405C002818BF012017
:102D00000090FFE70098C00758B1FFE70598019AC7
:102D1000805C0699891A8870FFE70198013001905C
:102D2000E2E70699D1F80300D1F80720052363F301
:102D3000C500C1F80720C1F803000699049BD1F82B
:102D40000300D1F8072063F30200C1F80720C1F89F
:102D500003000699039BD1F80300D1F8072003F084
:102D60000F0320F4707040EA8310C1F80720C1F807
:102D700003000699079BD1F80300D1F8072003F060
:102D80000F0320F4705040EA8320C1F80720C1F8F7
:102D9000030006990A9BD1F80320D1F8070063F3DA
:102DA0000900C1F80320C1F8070006990B9BD1F870
:102DB0000320D1F807006FF3DF236FF3942040EA7C
:102DC0008320C1F80320C1F8070006990C9BD1F8B5
:102DD0000320D1F807006FF35F5040EA4350C1F879
:102DE0000320C1F807000699089BD1F80300D1F829
:102DF00007206FF35F236FF3963040EA8330C1F80A
:102E00000720C1F803000699099BD1F80300D1F807
:102E100007206FF3DF5040EAC350C1F80720C1F824
:102E200003009DED020ABDEEC00A10EE100A0699DD
:102E3000C1F80B0007B0704783B002908DF80710FF
:102E4000FF208DF806008DF80500FFE79DF80700CC
:102E5000411E8DF80710E0B1FFE79DF805000299CB
:102E60004A1C02920978484000909DF80600009A9A
:102E70004FF28071C0F60001895C48408DF8050072
:102E800000994FF68000C0F60000405C8DF8060007
:102E9000DCE79DF805109DF8060040EA012003B02C
:102EA0007047000080B5ADF5087DDDF828C285913A
:102EB0008490BDF81402ADF81C0284988690839229
:102EC00082930020ADF806029DF818028A99BDF899
:102ED0000622531CADF8063288549DF819028A99CF
:102EE000BDF80622531CADF8063288549DF81B022B
:102EF0008A99BDF80622531CADF8063288549DF815
:102F00001A028A99BDF80622531CADF8063288547D
:102F10009DF81902012818DBFFE79DF81902042823
:102F200013DCFFE79DF81D028A99BDF80622531CA9
:102F3000ADF8063288549DF81C028A99BDF8062225
:102F4000531CADF806328854FFE79DF81902052896
:102F50001AD1FFE78398B8B1FFE78398007800F0B3
:102F60000100002818BFFF208A99BDF80622531CD3
:102F7000ADF8063288548A99BDF80622501CADF887
:102F8000060200208854FFE79DF81902062816D192
:102F9000FFE7829898B1FFE7829840788A99BDF858
:102FA0000622531CADF806328854829800788A991C
:102FB000BDF80622531CADF806328854FFE79DF891
:102FC00019020F283FD1FFE78398E0B3FFE79DF890
:102FD0001D028A99BDF80622531CADF806328854AA
:102FE0009DF81C028A99BDF80622531CADF80632E2
:102FF00088548398BDF81C1243AAFFF7DBFBADF899
:103000000A019DF80A018A99BDF80622531CADF801
:103010000632885400204190FFE74198BDF80A111C
:1030200088420FDAFFE7419943A8405C8A99BDF8CE
:103030000622531CADF806328854FFE74198013050
:103040004190EAE7FFE79DF81902102842D1FFE717
:10305000829800283ED0FFE79DF81D028A99BDF8AE
:103060000622531CADF8063288549DF81C028A993A
:10307000BDF80622531CADF8063288548298BDF87C
:103080001C120DF10A02FFF7E7FBADF808009DF8EE
:1030900008008A99BDF80622531CADF80632885400
:1030A00000200190FFE70198BDF80810884210DA6F
:1030B000FFE701990DF10A00405C8A99BDF80622EC
:1030C000531CADF806328854FFE701980130019097
:1030D000E9E7FFE7BDF806020DF5087D80BD0000B9
:1030E00081B08DF803009DF8030000EB800140F2F1
:1030F000E440C2F2000000EB810001B07047000024
:1031000040F6E040C2F200007047000084B0029038
:103110000191ADF80220029828B9FFE74FF6FF7041
:10312000ADF80E0021E0FFE70198411E0191B8B112
:10313000FFE70298411C029100788DF80100BDF86C
:1031400002109DF801004840C2B24FF6CE20C0F6F2
:10315000000030F8120080EA1120ADF80200E3E729
:10316000BDF80200ADF80E00FFE7BDF80E0004B098
:103170007047000083B0029001918DF80320FFE7B3
:103180000198411E019198B1FFE79DF80300029953
:103190004A1C0292097848408DF802009DF80210FE
:1031A0004FF27850C0F60000405C8DF80300E7E76E
:1031B0009DF8030003B0704784B00290019102981B
:1031C00090F820008DF803009DF80300012805D039
:1031D000FFE79DF8030002280AD1FFE7019A029851
:1031E000016848691043486100208DF80F0008E02D
:1031F0000299486A40F48020486201208DF80F004F
:10320000FFE79DF80F0004B07047000088B00690FB
:10321000059104920393069890F820008DF807001A
:1032200006980068806800900598806808B9FFE7F4
:1032300000E0FFE79DF80700012806D0FFE79DF8B2
:103240000700022840F08D80FFE79DF8030040074B
:1032500000280CD4FFE79DF803000007002806D4DF
:10326000FFE79DF80300C006002871D5FFE700982E
:10327000C0F3016002900298032809D3FFE7069982
:10328000486A40F40000486201208DF81F0071E098
:10329000029901208840039908600598806868B900
:1032A000FFE705980168C06840EA4150069909683F
:1032B000029A01EB0211C1F880010EE005994A68FB
:1032C0008868C96840EAC200084306990968029AFA
:1032D00001EB0211C1F88001FFE70598006906992A
:1032E0000968029A01EB0211C1F884010598007D7A
:1032F00001280CD1FFE706980068029900EB011144
:10330000D1F8840140F48070C1F88401FFE704988B
:10331000406806990968029A01EB0211C1F88C0114
:103320000498006806990968029A01EB0211C1F835
:10333000880106980068029900EB0111D1F880011C
:1033400040F00100C1F8800100208DF81F0011E05D
:103350000699486A40F40010486201208DF81F0069
:1033600008E00699486A40F48020486201208DF800
:103370001F00FFE79DF81F0008B0704786B004905B
:103380000391049800680190049890F820008DF84B
:1033900003009DF80300012806D0FFE79DF8030015
:1033A000022840F0B080FFE746F20040C4F200007F
:1033B00001900199D1F8000240F00100C1F800022B
:1033C0000199D1F8000220F47C50C1F80002039862
:1033D000426A0199D1F8000240EA0220C1F80002D5
:1033E0000398406900F01F01012088400290029A72
:1033F0000199D1F81C029043C1F81C020398C069DE
:10340000F0B9FFE7029A0199D1F80C029043C1F894
:103410000C02039A9088D168526940EA01400199F0
:1034200001EBC201C1F84002039A10889168526909
:1034300040EA0140019901EBC201C1F84402FFE7F3
:103440000398C06901281ED1FFE7029A0199D1F8BB
:103450000C021043C1F80C02039A9088116852695B
:1034600040EA0140019901EBC201C1F84002039A10
:1034700090899168526940EA0140019901EBC201CB
:10348000C1F84402FFE70398806940B9FFE7029A58
:103490000199D1F804029043C1F8040207E0029AAE
:1034A0000199D1F804021043C1F80402FFE7039820
:1034B000006940B9FFE7029A0199D1F814029043DC
:1034C000C1F8140207E0029A0199D1F814021043DE
:1034D000C1F81402FFE70398006A012808D1FFE74A
:1034E000029A0199D1F81C021043C1F81C02FFE7AF
:1034F0000199D1F8000220F00100C1F8000200207B
:103500008DF8170008E00499486A40F4802048626A
:1035100001208DF81700FFE79DF8170006B07047EF
:1035200081B0009001B0704786B004900391029280
:103530000193049890F820008DF803009DF8030093
:10354000012806D0FFE79DF80300022840F0D7804D
:10355000FFE7039880B9FFE704980068C068800718
:1035600048B9FFE70499486A40F400104862012016
:103570008DF81700CCE00FE0049800680069800720
:1035800048B9FFE70499486A40F4001048620120F6
:103590008DF81700BCE0FFE704980068039900EB82
:1035A0000110D0F8B00100F0040002998860029880
:1035B000806858B9FFE704980068039900EB011090
:1035C000D0F8B001400D029908600AE00498006844
:1035D000039900EB0110D0F8B001C00802994860CF
:1035E000FFE704980068039900EB0110D0F8B001E0
:1035F00000F002000299C86004980068039900EB8B
:103600000110D0F8B40100F00F000299086104988D
:103610000068039900EB0110D0F8B40180B2000AF1
:103620000299886104980068039900EB0110D0F8B2
:10363000B401000C0299486104980068039900EBFA
:103640000110D0F8B8010199087004980068039936
:1036500000EB0110D0F8B801000A019948700498F5
:103660000068039900EB0110D0F8B801000C019933
:10367000887004980068039900EB0110D0F8B80135
:10368000000E0199C87004980068039900EB0110BE
:10369000D0F8BC010199087104980068039900EB07
:1036A0000110D0F8BC01000A019948710498006823
:1036B000039900EB0110D0F8BC01000C019988714E
:1036C00004980068039900EB0110D0F8BC01000ECB
:1036D0000199C871039838B9FFE704980168C86870
:1036E00040F02000C86006E004980168086940F0D6
:1036F00020000861FFE700208DF8170008E004991A
:10370000486A40F48020486201208DF81700FFE7E6
:103710009DF8170006B0704780B58AB00990002068
:103720000890099800684069079009980068406807
:103730000690099800688068059009980068C0683C
:1037400004900998006800690390099800688069EE
:1037500002909DF81C00C007002800F09480FFE74D
:103760009DF81400C00758B3FFE7099801680120CD
:1037700088609DF814008007002804D5FFE70998A9
:1037800000F0E2FC1BE09DF814004007002805D57E
:10379000FFE7089840F4006008900FE09DF81400DF
:1037A0000007002805D5FFE7089840F480500890EE
:1037B00003E0099800F0C4FCFFE7FFE7FFE7FFE73D
:1037C0009DF81500C00760B3FFE7099801684FF442
:1037D000807088609DF815008007002804D5FFE7F9
:1037E000099800F0B9FC1BE09DF81500400700287F
:1037F00005D5FFE7089840F4005008900FE09DF8C9
:1038000015000007002805D5FFE7089840F4804020
:10381000089003E0099800F09BFCFFE7FFE7FFE753
:10382000FFE79DF81600C00760B3FFE7099801683D
:103830004FF4803088609DF816008007002804D57A
:10384000FFE7099800F090FC1BE09DF81600400788
:10385000002805D5FFE7089840F4004008900FE0E5
:103860009DF816000007002805D5FFE7089840F4EA
:103870008030089003E0099800F072FCFFE7FFE752
:10388000FFE7FFE7FFE79DF81C000007002810D5C1
:10389000FFE79DF81000C006002809D5FFE708984B
:1038A00040F400700890099801681020C860FFE794
:1038B000FFE79DF81C00400700280FD5FFE79DF8A3
:1038C00010000007002808D5FFE7099801680820C4
:1038D000C860099800F0CEFAFFE7FFE79DF81C00EA
:1038E000800700280BD5FFE709980068C0688007AB
:1038F00020B1FFE7099800F0C1FAFFE7FFE79DF864
:103900001C004006002810D5FFE79DF80C00C006FB
:10391000002809D5FFE7089840F4806008900998CE
:10392000016810200861FFE7FFE79DF81C00800692
:1039300000280FD5FFE79DF80C000007002808D5E8
:10394000FFE70998016808200861099800F0A6FBC4
:10395000FFE7FFE79DF81C00C00600280BD5FFE736
:10396000099800680069800720B1FFE7099800F016
:1039700099FBFFE7FFE79DF81E00800700280FD5A1
:10398000FFE79DF81800C006002808D5FFE7099852
:10399000016810204860099800F088FBFFE7FFE706
:1039A0009DF81E00C00778B1FFE79DF818000007DA
:1039B000002808D5FFE709980168082048600998A1
:1039C00000F0D6FBFFE7FFE79DF81D00000600288A
:1039D00040F18D80FFE79DF818004007002840F176
:1039E0008180FFE79DF81D00C00750B1FFE79DF8FB
:1039F0000800C00728B1FFE7089840F001000890D0
:103A0000FFE79DF81D00800700280BD5FFE79DF814
:103A100008008007002805D5FFE7089840F002005D
:103A20000890FFE79DF81D00400700280BD5FFE731
:103A30009DF808004007002805D5FFE7089840F0EA
:103A400004000890FFE79DF81D000007002848D5F6
:103A5000FFE79DF8080010F0700F42D0FFE70298D2
:103A600000F0700001460191102814D0FFE7019882
:103A7000202815D0FFE70198302816D0FFE70198DD
:103A8000402817D0FFE70198502818D0FFE7019889
:103A9000602819D01DE0089840F00800089019E04F
:103AA000089840F01000089014E0089840F02000BA
:103AB00008900FE0089840F0400008900AE008984D
:103AC00040F08000089005E0089840F4807008906D
:103AD00000E0FFE709980168886920F070008861BC
:103AE000FFE7FFE70998016804204860FFE70898AE
:103AF00048B1FFE7089A0999486A10434862099853
:103B0000FFF70EFDFFE70AB080BD000080B584B06E
:103B10000290029820B9FFE701208DF80F00E0E045
:103B2000029890F8200020B9FFE7029800F0DEF834
:103B3000FFE702980168086840F00100086001F0A2
:103B400051F80190FFE7029800684068C007A8B9E3
:103B5000FFE701F047F80199401A0B280DD3FFE762
:103B60000299486A40F4003048620299052081F8C1
:103B7000200001208DF80F00B3E0E4E7029801680F
:103B8000086820F00200086001F02CF80190FFE7BF
:103B90000298006840688007002815D5FFE701F00B
:103BA00021F80199401A0B280DD3FFE70299486AC2
:103BB00040F4003048620299052081F8200001207D
:103BC0008DF80F008DE0E3E70298007E012807D111
:103BD000FFE702980168086840F08000086006E08E
:103BE00002980168086820F080000860FFE70298EA
:103BF000407E012807D1FFE702980168086840F07D
:103C00004000086006E002980168086820F0400063
:103C10000860FFE70298807E012807D1FFE702983D
:103C20000168086840F02000086006E0029801681A
:103C3000086820F020000860FFE70298C07E012895
:103C400007D1FFE702980168086820F010000860BB
:103C500006E002980168086840F010000860FFE77D
:103C60000298007F012807D1FFE7029801680868E1
:103C700040F00800086006E002980168086820F03B
:103C800008000860FFE70298407F012807D1FFE79E
:103C900002980168086840F00400086006E0029895
:103CA0000168086820F004000860FFE7029B1968BB
:103CB0005A689868D3F80CC040EA0C00D3F810C0DA
:103CC00040EA0C005B691843013A1043C86102994D
:103CD00000204862029A012182F820108DF80F001E
:103CE000FFE79DF80F0004B080BD000080B590B0E4
:103CF0000F9000200E900D900C900B900A900F9852
:103D0000006846F20041C4F20001884249D1FFE751
:103D100040F2A060C2F20000016801310160006859
:103D2000012812D1FFE7FFE70020099043F6400089
:103D3000C4F20200016841F000710160006800F007
:103D4000007009900998FFE7FFE7FFE7002008905F
:103D500043F63000C4F20200016841F0080101603E
:103D6000006800F0080008900898FFE703200A9018
:103D700002210B91002103910C910D9009200E90CE
:103D800040F60040C4F202000AA900F037FD039A91
:103D900014200490052100F0E5FF049800F0D8FFFE
:103DA00065E00F98006846F60001C4F20001884201
:103DB0005CD1FFE7FFE70020079043F64000C4F224
:103DC0000200016841F080610160006800F08060DD
:103DD00007900798FFE740F2A060C2F20000016878
:103DE000013101600068012812D1FFE7FFE70020E0
:103DF000069043F64000C4F20200016841F00071F1
:103E00000160006800F0007006900698FFE7FFE789
:103E1000FFE70020059043F63000C4F2020001687D
:103E200041F002010160006800F002000590059871
:103E3000FFE74FF440500A9002200B9000200190C1
:103E40000C9003200D9009200E9040F20040C4F227
:103E500002000AA900F0D2FC019A4020029005213C
:103E600000F080FF029800F073FFFFE7FFE710B05B
:103E700080BD000081B0009001B0704780B58EB069
:103E80000D900D98002106AA04ABFFF74DFB0D988D
:103E9000006846F60001C4F2000188427AD1FFE7CB
:103EA0000698A0F20120032869D8FFE70698013898
:103EB00040F29C61C2F2000102910870087800EBA8
:103EC000800240F2E440C2F20000039000EB820363
:103ED00030F822201A819DF810309DF8112042EA16
:103EE00003220B7803EB830320F823209DF8123084
:103EF0009DF8132042EA03220B7803EB830300EBC7
:103F000083035A809DF814309DF8152042EA03225D
:103F10000B7803EB830300EB83039A809DF8162054
:103F20000B7803EB830300EB83039A710A7802EBAF
:103F3000820300EB830230F8233000EE103AB8EE33
:103F4000C00A9FED531A80EE010A9FED521A20EE2F
:103F5000010A9FED512A30EE020A82ED030A097828
:103F600001EB810100EB8100B0F9021000EE101AA4
:103F7000B8EEC00A20EE010A80ED040A09E040F61E
:103F80000040C4F202004FF48061012200F012FEF2
:103F9000FFE77AE00D98006846F20041C4F20001A4
:103FA000884271D1FFE706980190B0F5837F54D025
:103FB000FFE7019840F20711884256D0FFE70198C9
:103FC000B0F5887F52D0FFE7019840F21111884286
:103FD00057D0FFE7019840F20521884252D1FFE710
:103FE00040F6E040C2F200000090018801819DF897
:103FF00010209DF8111041EA022101809DF8122045
:104000009DF8131041EA022141809DF814209DF88B
:10401000151041EA022181809DF8161081710188F6
:1040200000EE101AB8EEC00A9FED191A80EE010AD0
:104030009FED181A20EE010A9FED172A30EE020AB2
:1040400080ED030AB0F9021000EE101AB8EEC00AB3
:1040500020EE010A80ED040A15E040F23711C2F2A9
:104060000001BDF8100008800DE00CE040F64D01A5
:10407000C2F200010498DDF81320C1F803200860A3
:1040800001E000E0FFE7FFE7FFE70EB080BD00BF03
:1040900000F8FF450000B443000034C381B0009035
:1040A00001B0704781B0009001B0704781B00090BE
:1040B00001B0704780B584B00290029890F820005B
:1040C00001282FD1FFE70299022081F820000298F1
:1040D0000168086820F00100086000F083FD01908D
:1040E000FFE7029800684068C007A8B1FFE700F04A
:1040F00079FD0199401A0B280DD3FFE70299486A10
:1041000040F4003048620299052081F82000012027
:104110008DF80F000FE0E4E70299002048628DF867
:104120000F0008E00299486A40F40020486201202C
:104130008DF80F00FFE79DF80F0004B080BD000070
:1041400081B0009001B0704781B0009001B070471D
:1041500081B0009001B0704781B0009001B070470D
:1041600081B0009001B0704781B0009001B07047FD
:1041700081B0009001B0704780B584B00290029881
:10418000806D019000F02EFD0090029890F83500AF
:1041900002280DD0FFE7029980204865FFE70299C9
:1041A000002081F83400FFE701208DF80F0055E072
:1041B00002980168086820F01600086002980168FB
:1041C000486920F0800048610298006C20B9FFE740
:1041D0000298806C38B1FFE702980168086820F007
:1041E00008000860FFE702980168086820F00100F5
:1041F0000860FFE7029800680068C007C8B1FFE7E1
:1042000000F0F0FC0099401A062811D3FFE702994C
:10421000202048650299032081F83500FFE70299C4
:10422000002081F83400FFE703208DF80F0015E02F
:10423000E0E70298C16D3F208840019988600299AB
:10424000012081F83500FFE70299002081F8340051
:10425000FFE7FFE700208DF80F00FFE79DF80F0054
:1042600004B080BD82B00090009890F8350002281C
:1042700007D0FFE700998020486501208DF80700EE
:104280000EE00099052081F8350000980168086863
:1042900020F001000860FFE700208DF80700FFE72D
:1042A0009DF8070002B0704780B586B005900020E9
:1042B000039040F24C00C2F20000006848F2B511D1
:1042C000C1F64E31A0FB0110800A02900598806D66
:1042D000019001980068049004980599C96DC84040
:1042E000000700281AD5FFE7059800680068400716
:1042F000002812D5FFE705980168086820F004003F
:1043000008600598C16D082088400199886005996A
:10431000486D40F001004865FFE7FFE70498059904
:10432000C96DC840C007A0B1FFE7059800684069A3
:10433000000600280CD5FFE70598C16D01208840D4
:10434000019988600599486D40F002004865FFE7D3
:10435000FFE704980599C96DC8404007002814D5A7
:10436000FFE7059800680068800700280CD5FFE784
:104370000598C16D04208840019988600599486DB1
:1043800040F004004865FFE7FFE704980599C96D10
:10439000C840C006002847D5FFE7059800680068B8
:1043A000000700283FD5FFE70598C16D1020884021
:1043B00001998860059800680068400300281AD5B4
:1043C000FFE70598006800680003002809D4FFE7AC
:1043D0000598006C20B1FFE70598016C8847FFE75E
:1043E00008E00598806C20B1FFE70598816C88474C
:1043F000FFE7FFE716E0059800680068C0050028A1
:1044000007D4FFE705980168086820F008000860F5
:10441000FFE70598006C20B1FFE70598016C88471D
:10442000FFE7FFE7FFE7FFE704980599C96DC8407C
:104430008006002840F18D80FFE70598006800683D
:10444000C006002840F18480FFE70598C16D202058
:10445000884001998860059890F83500052834D186
:10446000FFE705980168086820F0160008600598C5
:104470000168486920F0800048610598006C20B907
:10448000FFE70598806C38B1FFE705980168086878
:1044900020F008000860FFE70598C16D3F208840C4
:1044A000019988600599012081F83500FFE7059999
:1044B000002081F83400FFE70598006D20B1FFE788
:1044C0000598016D8847FFE77BE005980068006864
:1044D000400300281AD5FFE705980068006800032C
:1044E000002809D4FFE70598406C20B1FFE7059844
:1044F000416C8847FFE708E00598C06B20B1FFE7F3
:104500000598C16B8847FFE7FFE720E00598006842
:104510000068C005002811D4FFE705980168086805
:1045200020F0100008600599012081F83500FFE7B0
:104530000599002081F83400FFE7FFE70598C06B7C
:1045400020B1FFE70598C16B8847FFE7FFE7FFE76A
:10455000FFE70598406DA0B3FFE70598406DC007E1
:1045600030B3FFE70599052081F83500059801680B
:10457000086820F001000860FFE70398013003900D
:104580000299884201D9FFE707E0FFE70598006834
:104590000068C0070028F0D1FFE70599012081F8E5
:1045A0003500FFE70599002081F83400FFE7FFE7B9
:1045B0000598C06C20B1FFE70598C16C8847FFE7FC
:1045C000FFE706B080BD000080B586B004900020F3
:1045D000039000F007FB0290049820B9FFE7012048
:1045E0008DF81700A3E00498406A08B1FFE7FFE7E1
:1045F0000499022081F83500FFE70499002081F832
:104600003400FFE704980168086820F001000860A2
:10461000FFE7049800680068C00790B1FFE700F06A
:10462000E1FA0299401A06280AD3FFE704992020EC
:1046300048650499032081F835008DF8170076E06D
:10464000E7E70498006800680390039848F23F0188
:10465000CFF2100108400390049900914868D1F806
:1046600008C0CB680A6940EA0C00184310434A6945
:1046700010438A691043CA691043096A01430398C9
:10468000084303900498406A042808D1FFE704997E
:10469000C86A096B0143039808430390FFE7039836
:1046A00004990968086004980068406903900398B9
:1046B00020F0070003900498416A03980843039090
:1046C0000498406A04281AD1FFE70498816A039885
:1046D000084303900498C06A80B1FFE70498FEF78E
:1046E000BDF950B1FFE704994020486504990120C5
:1046F00081F835008DF8170019E0FFE7FFE7039810
:104700000499096848610498FEF77CF901900498BF
:10471000C16D3F2088400199886004990020486558
:10472000049A012182F835108DF81700FFE79DF8F3
:10473000170006B080BD000080B588B006900591D6
:104740000492039300208DF80B000698806D019071
:10475000FFE7069890F83400012804D1FFE7022013
:104760008DF81F0045E00699012081F83400FFE72D
:10477000FFE7069890F8350001282BD1FFE706994E
:10478000022081F8350006990020486506980599B1
:10479000049A039BFEF7DAF90698C16D3F20884022
:1047A0000199886006980168086840F01600086062
:1047B0000698006C38B1FFE706980168086840F079
:1047C00008000860FFE706980168086840F00100EB
:1047D000086009E0FFE70699002081F83400FFE750
:1047E00002208DF80B00FFE79DF80B008DF81F00ED
:1047F000FFE79DF81F0008B080BD00008EB00D904F
:104800000C9100200A90099008900B90FFE70B98FC
:104810000F2800F2CC81FFE70B99012088400A9015
:104820000C9800680A990840099009980A998842EA
:1048300040F0B881FFE70C98406800F003000128C1
:1048400007D0FFE70C98406800F0030002282FD142
:10485000FFE70D98806808900B984100032000FA4C
:1048600001F10898884308900C98C0680B9949009A
:1048700000FA01F108980843089008980D9988609B
:104880000D98406808900B99012000FA01F10898F2
:10489000884308900C984068C0F300100B9900FA08
:1048A00001F108980843089008980D994860FFE7BF
:1048B0000C98406800F00300032818D0FFE70D981B
:1048C000C06808900B984100032000FA01F1089895
:1048D000884308900C9880680B99490000FA01F110
:1048E00008980843089008980D99C860FFE70C984D
:1048F000406800F00300022826D1FFE70D980B99CD
:104900006FF0030202EA51010844006A08900B9814
:1049100000F0070081000F2000FA01F10898884399
:1049200008900C9800690B9901F00701890000FAC2
:1049300001F108980843089008980D990B9B02EA2A
:10494000530211440862FFE70D98006808900B9825
:104950004100032000FA01F10898884308900C9860
:10496000406800F003000B99490000FA01F1089833
:104970000843089008980D9908600C988079800782
:10498000002800F00E81FFE7FFE70020079043F6C4
:104990004400C4F20200016841F4804101600068F3
:1049A00000F4804007900798FFE70B9820F0030081
:1049B00043F60801C4F20101405808900B9800F03A
:1049C000030081000F2000FA01F108988843089045
:1049D0000D980021C4F20201884203D1FFE70020B4
:1049E00006905EE00D9840F20041C4F20201884258
:1049F00003D1FFE70120059050E00D9840F600013B
:104A0000C4F20201884203D1FFE70220049042E091
:104A10000D9840F60041C4F20201884203D1FFE73D
:104A20000320039034E00D9841F20001C4F202012A
:104A3000884203D1FFE70420029026E00D9841F25E
:104A40000041C4F20201884203D1FFE70520019032
:104A500018E00D9841F60001C4F20201884203D12A
:104A6000FFE7062000900AE00D9941F60042C4F2EB
:104A700002020820914208BF07200090FFE700983B
:104A80000190FFE701980290FFE702980390FFE78B
:104A900003980490FFE704980590FFE705980690B7
:104AA000FFE70698C0B20B9901F00301890000FAF4
:104AB00001F108980843089008980B9921F0030128
:104AC00043F60802C4F20102885043F60840C4F2DB
:104AD00001000068089009990898884308900C988C
:104AE0008079C006002805D5FFE709990898084392
:104AF0000890FFE7089843F60841C4F201010860F6
:104B000043F60C40C4F20100006808900999089827
:104B1000884308900C9880798006002805D5FFE727
:104B20000999089808430890FFE7089843F60C4154
:104B3000C4F20101086043F60440C4F201000068B9
:104B4000089009990898884308900C988079800704
:104B5000002805D5FFE70999089808430890FFE762
:104B6000089843F60441C4F20101086043F600408E
:104B7000C4F20100006808900999089888430890D9
:104B80000C988079C00728B1FFE709990898084375
:104B90000890FFE7089843F60041C4F2010108605D
:104BA000FFE7FFE7FFE70B9801300B902FE60EB011
:104BB0007047000082B00190ADF802108DF801201E
:104BC0009DF8010028B1FFE7BDF802000199886156
:104BD00005E0BDF80200000401998861FFE702B01A
:104BE0007047000045F65C00C2F2000000687047A4
:104BF00040F2A000C2F20000027845F65C01C2F269
:104C000000010868104408607047000080B543F652
:104C10000041C4F20201086840F4007008600868AE
:104C200040F480600860086840F4807008600320E9
:104C300000F0B2F80F2000F005F800F05DF8002059
:104C400080BD000080B58CB00A90002204920392CF
:104C50000A993720009000F085F8009800F078F865
:104C6000FFE70020019043F64000C4F20200016813
:104C700041F020010160006800F0200001900198DF
:104C8000FFE705A802A900F0C1F900F0EFF9400024
:104C9000049004984DF68361C4F21B31A0FB01011E
:104CA0004FF0FF3000EB9140039041F20810C2F248
:104CB000000041F20041C4F20001016040F2E7311E
:104CC000C1600399416000210161816000F060FED4
:104CD00048B9FFE741F20810C2F2000000F0D0FE30
:104CE0008DF82F0003E001208DF82F00FFE79DF8DD
:104CF0002F000CB080BD000080B582B0FFE700201F
:104D0000019043F64400C4F20200016841F480417E
:104D10000160006800F4804001900198FFE7FFE720
:104D20000020009043F64000C4F20200016841F008
:104D300080510160006800F0805000900098FFE70B
:104D40006FF001000F21002200F00CF802B080BDCE
:104D500080B582B08DF807009DF9070006F05AFD76
:104D600002B080BD80B586B08DF817000491039223
:104D70000020029006F066FD02909DF91700019058
:104D800002980499039A02F0D3FB0146019806F0B9
:104D900061FD06B080BD000080B582B00190019831
:104DA00006F07AFD02B080BD80B584B0029001911A
:104DB000029820B9FFE701208DF80F0021E101984A
:104DC00043F60041C4F20201096801F0070188427C
:104DD00012D9FFE7019943F60040C4F202000170C6
:104DE000006800F007000199884204D0FFE7012025
:104DF0008DF80F0005E1FFE7029800788007002892
:104E00002AD5FFE7029800784007002809D5FFE778
:104E100043F60801C4F20201086840F4E05008605B
:104E2000FFE7029800780007002809D5FFE743F65E
:104E30000801C4F20201086840F460400860FFE71E
:104E400043F60801C4F20201086820F0F000029A5B
:104E5000926810430860FFE702980078C0070028B6
:104E60006ED0FFE702984068012811D1FFE743F6B2
:104E70000000C4F20200006800F400310020B0EB32
:104E8000514F04D1FFE701208DF80F00B9E02CE06D
:104E900002984068022805D0FFE70298406803287E
:104EA00011D1FFE743F60000C4F20200006800F0F1
:104EB00000710020B0EB516F04D1FFE701208DF8A5
:104EC0000F009EE010E043F60000C4F2020000680C
:104ED00000F002010020B0EB510F04D1FFE70120E8
:104EE0008DF80F008DE0FFE7FFE743F60801C4F2FD
:104EF0000201086820F00300029A5268104308601B
:104F0000FFF770FE0090FFE743F60800C4F20200CE
:104F1000006800F00C0002994968B0EB810F0ED0D8
:104F2000FFE7FFF75FFE0099401A41F2893188429E
:104F300004D3FFE703208DF80F0062E0E4E7FFE70A
:104F4000019843F60041C4F20201096801F007012B
:104F5000884212D2FFE7019943F60040C4F20200F2
:104F60000170006800F007000199884204D0FFE753
:104F700001208DF80F0044E0FFE702980078400719
:104F800000280CD5FFE743F60801C4F202010868C7
:104F900020F4E050029AD26810430860FFE70298BC
:104FA0000078000700280DD5FFE743F60801C4F29A
:104FB0000201086820F46040029A126940EAC200C7
:104FC0000860FFE700F076F843F60801C4F202013A
:104FD0000968C9B20A094FF26051C0F60001895C44
:104FE000C84040F24C01C2F20001086040F2A40047
:104FF000C2F200000068FFF725FE00208DF80F00C8
:10500000FFE79DF80F0004B080BD000082B0019062
:10501000009101990F20086043F60800C4F20200D5
:10502000016801F00301019A5160016801F0F0018B
:10503000019A9160016801F4E051019AD160006821
:1050400000F46040C0080199086143F60040C4F2D2
:105050000200006800F007000099086002B0704785
:1050600040F24C00C2F200000068704780B5FFF7C4
:10507000F7FF43F60801C4F202010968C1F3822276
:105080004FF27051C0F60001895CC84080BD00003D
:1050900080B5FFF7E5FF43F60801C4F20201096895
:1050A00089B24A0B4FF27051C0F60001895CC840CA
:1050B00080BD000080B586B000200590049003906C
:1050C000029043F60800C4F20200006800F00C00F1
:1050D0000146019140B1FFE7019804280AD0FFE79B
:1050E000019808280CD04FE042F20040C0F2F400D2
:1050F00002904FE041F20020C0F27A00029049E0B5
:1051000043F60400C4F20200016801F03F0105917A
:1051100000684002002813D5FFE743F60400C4F2FC
:1051200002000068C0F3881041F20021C0F27A0149
:10513000A0FB0101059A0023FBF7B8F8049012E0E8
:1051400043F60400C4F202000068C0F3881042F283
:105150000041C0F2F401A0FB0101059A0023FBF716
:10516000A5F80490FFE743F60400C4F202000068CB
:1051700000F44031022000EBD130039004980399F1
:10518000B0FBF1F0029005E042F20040C0F2F40002
:105190000290FFE7029806B080BD000080B586B09F
:1051A0000490049820B9FFE701208DF8170050E320
:1051B00004980078C007002800F0A580FFE743F6B8
:1051C0000800C4F20200006800F00C00042813D0AC
:1051D000FFE743F60800C4F20200006800F00C008C
:1051E00008281ED1FFE743F60400C4F2020000685D
:1051F0004002002815D5FFE743F60000C4F2020084
:10520000006800F400310020B0EB514F08D0FFE7F8
:105210000498406820B9FFE701208DF8170018E3D3
:1052200070E0FFE704984068B0F5803F09D1FFE7E0
:1052300043F60001C4F20201086840F480300860BF
:1052400020E004984068B0F5A02F0DD1FFE743F6A9
:105250000001C4F20201086840F480200860086878
:1052600040F4803008600CE043F60001C4F2020113
:10527000086820F480300860086820F48020086006
:10528000FFE7FFE7FFE704984068E8B1FFE7FFF7B3
:10529000A9FC0390FFE743F60000C4F20200006897
:1052A00000F400310020B0EB514F0CD1FFE7FFF7C5
:1052B00099FC0399401A652804D3FFE703208DF871
:1052C0001700C6E2E7E71CE0FFF78CFC0390FFE75E
:1052D00043F60000C4F20200006800F40031002030
:1052E000B0EB514F0CD0FFE7FFF77CFC0399401A5D
:1052F000652804D3FFE703208DF81700A9E2E7E74C
:10530000FFE7FFE7FFE7049800788007002840F1F7
:105310009680FFE743F60800C4F20200006810F030
:105320000C0F13D0FFE743F60800C4F20200006838
:1053300000F00C0008282CD1FFE743F60400C4F26B
:10534000020000684002002823D4FFE743F6000073
:10535000C4F20200006800F002010020B0EB510F1F
:1053600009D0FFE70498C068012804D0FFE70120B6
:105370008DF817006DE243F60001C4F202010868DF
:1053800020F0F800049A126940EAC2000860FFE7C2
:1053900054E00498C06870B3FFE70021C4F24721CD
:1053A00001200860FFF71EFC0390FFE743F60000B2
:1053B000C4F20200006800F002010020B0EB510FBF
:1053C0000CD1FFE7FFF70EFC0399401A032804D322
:1053D000FFE703208DF817003BE2E7E743F6000103
:1053E000C4F20201086820F0F800049A126940EA49
:1053F000C200086021E00021C4F2472100200860BB
:10540000FFF7F0FB0390FFE743F60000C4F2020051
:10541000006800F002010020B0EB510F0CD0FFE754
:10542000FFF7E0FB0399401A032804D3FFE70320AA
:105430008DF817000DE2E7E7FFE7FFE7FFE70498C5
:105440000078000700284BD5FFE70498406918B39F
:10545000FFE740F68061C4F2472101200860FFF7B2
:10546000C1FB0390FFE743F67400C4F2020000683A
:1054700000F002010020B0EB510F0CD1FFE7FFF765
:10548000B1FB0399401A032804D3FFE703208DF8EA
:105490001700DEE1E7E722E040F68061C4F2472131
:1054A00000200860FFF79EFB0390FFE743F67400BF
:1054B000C4F20200006800F002010020B0EB510FBE
:1054C0000CD0FFE7FFF78EFB0399401A032804D3A3
:1054D000FFE703208DF81700BBE1E7E7FFE7FFE7F1
:1054E000049800784007002840F1CE80FFE70020B4
:1054F0008DF8070043F64000C4F202000068C000C7
:10550000002815D4FFE7FFE70020009043F6400095
:10551000C4F20200016841F080510160006800F0AF
:10552000805000900098FFE701208DF80700FFE70A
:1055300047F20000C4F200000068C005002822D431
:10554000FFE747F20001C4F20001086840F48070F0
:105550000860FFF747FB0390FFE747F20000C4F243
:1055600000000068C00500280CD4FFE7FFF73AFBF5
:105570000399401A032804D3FFE703208DF817008E
:1055800067E1EAE7FFE7FFE704988068012809D1AF
:10559000FFE743F67001C4F20201086840F0010021
:1055A00008601FE00498806805280DD1FFE743F6E6
:1055B0007001C4F20201086840F004000860086845
:1055C00040F0010008600CE043F67001C4F20201F3
:1055D000086820F001000860086820F004000860F6
:1055E000FFE7FFE7FFE704988068F8B1FFE7FFF700
:1055F000F9FA0390FFE743F67000C4F20200006876
:1056000000F002010020B0EB510F0ED1FFE7FFF7D1
:10561000E9FA0399401A41F28931884204D3FFE73D
:1056200003208DF8170014E1E5E71EE0FFF7DAFA32
:105630000390FFE743F67000C4F20200006800F038
:1056400002010020B0EB510F0ED0FFE7FFF7CAFABE
:105650000399401A41F28931884204D3FFE70320BD
:105660008DF81700F5E0E5E7FFE79DF80700012852
:1056700009D1FFE743F64001C4F20201086820F0B7
:1056800080500860FFE7FFE704988069002800F079
:10569000DC80FFE743F60800C4F20200006800F077
:1056A0000C00082800F08580FFE704988069022834
:1056B0005CD1FFE76021C4F2472100200860FFF7BA
:1056C00091FA0390FFE743F60000C4F2020000687D
:1056D00000F000710020B0EB516F0CD0FFE7FFF736
:1056E00081FA0399401A032804D3FFE703208DF8B9
:1056F0001700AEE0E7E70499C869D1F820C04B6A0B
:105700008A6A40EA0C0040EA8310D2034FF6FF7326
:105710009A43A2F580321043C96A40EA016043F619
:105720000401C4F2020108606021C4F24721012093
:105730000860FFF757FA0390FFE743F60000C4F252
:105740000200006800F000710020B0EB516F0CD136
:10575000FFE7FFF747FA0399401A032804D3FFE74E
:1057600003208DF8170074E0E7E721E06021C4F220
:10577000472100200860FFF735FA0390FFE743F662
:105780000000C4F20200006800F000710020B0EBDD
:10579000516F0CD0FFE7FFF725FA0399401A032851
:1057A00004D3FFE703208DF8170052E0E7E7FFE797
:1057B0004AE004988069012804D1FFE701208DF8B0
:1057C000170046E043F60400C4F2020000680290AD
:1057D00004988069012831D0FFE7029800F4800026
:1057E0000499C969884229D1FFE7029800F03F0077
:1057F0000499096A884221D1FFE7029847F6C071EF
:1058000008400499496AB0EB811F17D1FFE702985D
:1058100000F440300499896AC9034FF6FF7291433E
:10582000A1F58031884209D1FFE7029800F070604D
:105830000499C96AB0EB016F04D0FFE701208DF82D
:10584000170006E0FFE7FFE7FFE700208DF81700ED
:10585000FFE79DF8170006B080BD000081B0009002
:1058600001B0704781B0009001B0704785B00390DF
:105870000291FFE7039890F83C00012804D1FFE76C
:1058800002208DF813007EE00399012081F83C008E
:10589000FFE7FFE70399022081F83D0003980068C5
:1058A000406801900398006880680090019820F09B
:1058B00070000190029801680198084301900198D6
:1058C000039909684860039800680021C4F2010147
:1058D00088423CD0FFE703980068B0F1804F36D093
:1058E000FFE70398006840F20041C4F200018842DB
:1058F0002DD0FFE70398006840F60001C4F20001D4
:10590000884224D0FFE70398006840F60041C4F2C3
:10591000000188421BD0FFE70398006840F2004175
:10592000C4F20101884212D0FFE70398006844F2F4
:105930000001C4F20101884209D0FFE70398006822
:1059400041F60001C4F2000188420ED1FFE7009841
:1059500020F0800000900298416800980843009071
:105960000098039909688860FFE70399012081F88E
:105970003D00FFE70399002081F83C00FFE700208D
:105980008DF81300FFE79DF8130005B07047000085
:1059900080B582B00090009820B9FFE701208DF813
:1059A00007003FE0009890F83D0040B9FFE70099FC
:1059B000002081F83C00009800F038F8FFE70099DB
:1059C000022081F83D00009951F8040B02F0C0FB61
:1059D0000099012081F84600FFE70099012081F835
:1059E0003E00009981F83F00009981F8400000993D
:1059F00081F84100FFE7FFE70099012081F84200AC
:105A0000009981F84300009981F84400009981F8D9
:105A10004500FFE70099012081F83D0000208DF846
:105A20000700FFE79DF8070002B080BD80B584B095
:105A300003900398006840F20041C4F200018842DC
:105A40001BD1FFE7FFE70020029043F64000C4F2BD
:105A50000200016841F002010160006800F00200EC
:105A600002900298FFE71D20019005210022FFF718
:105A700079F90198FFF76CF9FFE704B080BD0000E9
:105A800083B00190019890F83D00012804D0FFE711
:105A900001208DF80B006AE00199022081F83D0099
:105AA00001980168C86840F00100C860019800686A
:105AB0000021C4F2010188423CD0FFE70198006850
:105AC000B0F1804F36D0FFE70198006840F2004106
:105AD000C4F2000188422DD0FFE70198006840F62B
